{
  "_format": "hh-sol-artifact-1",
  "contractName": "Document_Storage",
  "sourceName": "contracts/1_Document_Storage.sol",
  "abi": [
    {
      "inputs": [
        {
          "internalType": "string",
          "name": "",
          "type": "string"
        }
      ],
      "name": "Document_info",
      "outputs": [
        {
          "internalType": "string",
          "name": "_unique_key",
          "type": "string"
        },
        {
          "internalType": "uint256",
          "name": "_roll_no",
          "type": "uint256"
        },
        {
          "internalType": "string",
          "name": "_file_hash",
          "type": "string"
        },
        {
          "internalType": "string",
          "name": "_file_type",
          "type": "string"
        },
        {
          "internalType": "bool",
          "name": "_isValue",
          "type": "bool"
        }
      ],
      "stateMutability": "view",
      "type": "function"
    },
    {
      "inputs": [
        {
          "internalType": "string",
          "name": "unique_key",
          "type": "string"
        }
      ],
      "name": "get_file",
      "outputs": [
        {
          "components": [
            {
              "internalType": "string",
              "name": "_unique_key",
              "type": "string"
            },
            {
              "internalType": "uint256",
              "name": "_roll_no",
              "type": "uint256"
            },
            {
              "internalType": "string",
              "name": "_file_hash",
              "type": "string"
            },
            {
              "internalType": "string",
              "name": "_file_type",
              "type": "string"
            },
            {
              "internalType": "bool",
              "name": "_isValue",
              "type": "bool"
            }
          ],
          "internalType": "struct Document_Storage.Document",
          "name": "",
          "type": "tuple"
        }
      ],
      "stateMutability": "view",
      "type": "function"
    },
    {
      "inputs": [
        {
          "internalType": "string",
          "name": "unique_key",
          "type": "string"
        },
        {
          "internalType": "uint256",
          "name": "roll_no",
          "type": "uint256"
        },
        {
          "internalType": "string",
          "name": "file_hash",
          "type": "string"
        },
        {
          "internalType": "string",
          "name": "file_type",
          "type": "string"
        }
      ],
      "name": "store_file",
      "outputs": [],
      "stateMutability": "nonpayable",
      "type": "function"
    }
  ],
  "bytecode": "0x608060405234801561001057600080fd5b50610fef806100206000396000f3fe608060405234801561001057600080fd5b50600436106100415760003560e01c80631275056814610046578063208b2f24146100765780633f03842b14610092575b600080fd5b610060600480360381019061005b919061092f565b6100c6565b60405161006d9190610aaf565b60405180910390f35b610090600480360381019061008b9190610afd565b6102d9565b005b6100ac60048036038101906100a7919061092f565b6105b3565b6040516100bd959493929190610c20565b60405180910390f35b6100ce6107a4565b6000826040516100de9190610cc4565b90815260200160405180910390206040518060a001604052908160008201805461010790610d0a565b80601f016020809104026020016040519081016040528092919081815260200182805461013390610d0a565b80156101805780601f1061015557610100808354040283529160200191610180565b820191906000526020600020905b81548152906001019060200180831161016357829003601f168201915b50505050508152602001600182015481526020016002820180546101a390610d0a565b80601f01602080910402602001604051908101604052809291908181526020018280546101cf90610d0a565b801561021c5780601f106101f15761010080835404028352916020019161021c565b820191906000526020600020905b8154815290600101906020018083116101ff57829003601f168201915b5050505050815260200160038201805461023590610d0a565b80601f016020809104026020016040519081016040528092919081815260200182805461026190610d0a565b80156102ae5780601f10610283576101008083540402835291602001916102ae565b820191906000526020600020905b81548152906001019060200180831161029157829003601f168201915b505050505081526020016004820160009054906101000a900460ff1615151515815250509050919050565b600080856040516102ea9190610cc4565b90815260200160405180910390206040518060a001604052908160008201805461031390610d0a565b80601f016020809104026020016040519081016040528092919081815260200182805461033f90610d0a565b801561038c5780601f106103615761010080835404028352916020019161038c565b820191906000526020600020905b81548152906001019060200180831161036f57829003601f168201915b50505050508152602001600182015481526020016002820180546103af90610d0a565b80601f01602080910402602001604051908101604052809291908181526020018280546103db90610d0a565b80156104285780601f106103fd57610100808354040283529160200191610428565b820191906000526020600020905b81548152906001019060200180831161040b57829003601f168201915b5050505050815260200160038201805461044190610d0a565b80601f016020809104026020016040519081016040528092919081815260200182805461046d90610d0a565b80156104ba5780601f1061048f576101008083540402835291602001916104ba565b820191906000526020600020905b81548152906001019060200180831161049d57829003601f168201915b505050505081526020016004820160009054906101000a900460ff16151515158152505090508060800151156104ef57600080fd5b60006040518060a001604052808781526020018681526020018581526020018481526020016001151581525090508060008760405161052e9190610cc4565b908152602001604051809103902060008201518160000190816105519190610ee7565b506020820151816001015560408201518160020190816105719190610ee7565b5060608201518160030190816105879190610ee7565b5060808201518160040160006101000a81548160ff021916908315150217905550905050505050505050565b6000818051602081018201805184825260208301602085012081835280955050505050506000915090508060000180546105ec90610d0a565b80601f016020809104026020016040519081016040528092919081815260200182805461061890610d0a565b80156106655780601f1061063a57610100808354040283529160200191610665565b820191906000526020600020905b81548152906001019060200180831161064857829003601f168201915b50505050509080600101549080600201805461068090610d0a565b80601f01602080910402602001604051908101604052809291908181526020018280546106ac90610d0a565b80156106f95780601f106106ce576101008083540402835291602001916106f9565b820191906000526020600020905b8154815290600101906020018083116106dc57829003601f168201915b50505050509080600301805461070e90610d0a565b80601f016020809104026020016040519081016040528092919081815260200182805461073a90610d0a565b80156107875780601f1061075c57610100808354040283529160200191610787565b820191906000526020600020905b81548152906001019060200180831161076a57829003601f168201915b5050505050908060040160009054906101000a900460ff16905085565b6040518060a00160405280606081526020016000815260200160608152602001606081526020016000151581525090565b6000604051905090565b600080fd5b600080fd5b600080fd5b600080fd5b6000601f19601f8301169050919050565b7f4e487b7100000000000000000000000000000000000000000000000000000000600052604160045260246000fd5b61083c826107f3565b810181811067ffffffffffffffff8211171561085b5761085a610804565b5b80604052505050565b600061086e6107d5565b905061087a8282610833565b919050565b600067ffffffffffffffff82111561089a57610899610804565b5b6108a3826107f3565b9050602081019050919050565b82818337600083830152505050565b60006108d26108cd8461087f565b610864565b9050828152602081018484840111156108ee576108ed6107ee565b5b6108f98482856108b0565b509392505050565b600082601f830112610916576109156107e9565b5b81356109268482602086016108bf565b91505092915050565b600060208284031215610945576109446107df565b5b600082013567ffffffffffffffff811115610963576109626107e4565b5b61096f84828501610901565b91505092915050565b600081519050919050565b600082825260208201905092915050565b60005b838110156109b2578082015181840152602081019050610997565b60008484015250505050565b60006109c982610978565b6109d38185610983565b93506109e3818560208601610994565b6109ec816107f3565b840191505092915050565b6000819050919050565b610a0a816109f7565b82525050565b60008115159050919050565b610a2581610a10565b82525050565b600060a0830160008301518482036000860152610a4882826109be565b9150506020830151610a5d6020860182610a01565b5060408301518482036040860152610a7582826109be565b91505060608301518482036060860152610a8f82826109be565b9150506080830151610aa46080860182610a1c565b508091505092915050565b60006020820190508181036000830152610ac98184610a2b565b905092915050565b610ada816109f7565b8114610ae557600080fd5b50565b600081359050610af781610ad1565b92915050565b60008060008060808587031215610b1757610b166107df565b5b600085013567ffffffffffffffff811115610b3557610b346107e4565b5b610b4187828801610901565b9450506020610b5287828801610ae8565b935050604085013567ffffffffffffffff811115610b7357610b726107e4565b5b610b7f87828801610901565b925050606085013567ffffffffffffffff811115610ba057610b9f6107e4565b5b610bac87828801610901565b91505092959194509250565b600082825260208201905092915050565b6000610bd482610978565b610bde8185610bb8565b9350610bee818560208601610994565b610bf7816107f3565b840191505092915050565b610c0b816109f7565b82525050565b610c1a81610a10565b82525050565b600060a0820190508181036000830152610c3a8188610bc9565b9050610c496020830187610c02565b8181036040830152610c5b8186610bc9565b90508181036060830152610c6f8185610bc9565b9050610c7e6080830184610c11565b9695505050505050565b600081905092915050565b6000610c9e82610978565b610ca88185610c88565b9350610cb8818560208601610994565b80840191505092915050565b6000610cd08284610c93565b915081905092915050565b7f4e487b7100000000000000000000000000000000000000000000000000000000600052602260045260246000fd5b60006002820490506001821680610d2257607f821691505b602082108103610d3557610d34610cdb565b5b50919050565b60008190508160005260206000209050919050565b60006020601f8301049050919050565b600082821b905092915050565b600060088302610d9d7fffffffffffffffffffffffffffffffffffffffffffffffffffffffffffffffff82610d60565b610da78683610d60565b95508019841693508086168417925050509392505050565b6000819050919050565b6000610de4610ddf610dda846109f7565b610dbf565b6109f7565b9050919050565b6000819050919050565b610dfe83610dc9565b610e12610e0a82610deb565b848454610d6d565b825550505050565b600090565b610e27610e1a565b610e32818484610df5565b505050565b5b81811015610e5657610e4b600082610e1f565b600181019050610e38565b5050565b601f821115610e9b57610e6c81610d3b565b610e7584610d50565b81016020851015610e84578190505b610e98610e9085610d50565b830182610e37565b50505b505050565b600082821c905092915050565b6000610ebe60001984600802610ea0565b1980831691505092915050565b6000610ed78383610ead565b9150826002028217905092915050565b610ef082610978565b67ffffffffffffffff811115610f0957610f08610804565b5b610f138254610d0a565b610f1e828285610e5a565b600060209050601f831160018114610f515760008415610f3f578287015190505b610f498582610ecb565b865550610fb1565b601f198416610f5f86610d3b565b60005b82811015610f8757848901518255600182019150602085019450602081019050610f62565b86831015610fa45784890151610fa0601f891682610ead565b8355505b6001600288020188555050505b50505050505056fea2646970667358221220fcac40a434dd9fbcd8efc1eecde277d92ff6897ee8debd91163f1b6a817d2b4a64736f6c63430008110033",
  "linkReferences": {},
  "deployedLinkReferences": {}
}